:020000040800F2
:10000000A80C00209D010008491700084F160008A1
:1000100000000000000000000000000000000000E0
:10002000000000000000000000000000DD1A0008D1
:1000300000000000000000004B170008DF1A000855
:10004000AF010008AF010008AF010008AF010008D0
:10005000AF010008AF010008AF010008AF010008C0
:1000600000000000AF010008AF010008AF01000868
:10007000AF010008AF010008AF010008AF010008A0
:10008000AF010008AF010008AF0100080000000048
:10009000AF010008AF010008AF010008AF01000880
:1000A000AF010008AF010008AF010008E12100081E
:1000B000AF010008AF0100080000000000000000D0
:1000C00000F002F800F03EF80CA030C80838241800
:1000D0002D18671EA246AB4654465D46AC4201D180
:1000E00000F030F87E460F3EB6460FCC0126334274
:1000F00000D0FB1A3343A246AB4618476C240000DD
:100100008C240000103A02D378C878C1FAD852077C
:1001100001D330C830C101D504680C6070470000BD
:100120000023002400250026103A01D378C1FBD813
:10013000520700D330C100D50B6070471FB51FBDFB
:1001400010B510BD00F00BFA1146FFF7F7FF02F0F3
:10015000A3F900F023FA03B4FFF7F2FF03BC00F0A9
:1001600029FA000070B505460C46164602E00FCC91
:100170000FC5103E102EFAD2082E02D303CC03C5B1
:10018000083E042E07D301CC01C5361F03E02178B9
:100190002970641C6D1C761EF9D270BD074880471B
:1001A00007480047FEE7FEE7FEE7FEE7FEE7FEE75B
:1001B00004480549054A064B70470000811B0008AA
:1001C000C1000008A8060020A80C0020A8080020F4
:1001D000A8080020FEB5044610460D46184373D00B
:1001E000A6468C460020A41A01469D4167D3664668
:1001F000002701243D46B61A9D4102D313463A46D4
:100200002124654676462F04360C3E432D0CB61A43
:100210009D4104D3150C1B042B4312041034654676
:1002200076462F06360A3E432D0AB61A9D4104D360
:10023000150E1B022B4312020834654676462F0723
:1002400036093E432D09B61A9D4104D3150F1B01F3
:100250002B431201241D65467646AF07B6083E4380
:10026000AD08B61A9D4104D3950F9B002B43920015
:10027000A41C65467646EF0776083E436D08B61A1D
:100280009D411AD392185B41641C16E00018764613
:1002900065464941B71A9D410191009009D36046D6
:1002A000B11A98418E468446009801990025401C59
:1002B0006941DD0752082A435B08641EE6D5724691
:1002C000634603B0F0BDFFE72046284307D0002077
:1002D000C0430146C046C04622462B46F1E70020F7
:1002E0000146F7E730B5441C03E00178401C0029C3
:1002F0000DD08107F9D10B4BDD0104C8D11A914310
:100300002940FAD0001B0A0603D0C01E30BD001BD6
:1003100030BD0A0401D0801E30BD0902FCD0401E51
:1003200030BD000001010101F8B5042A2CD3830778
:1003300012D00B78491C0370401C521E83070BD04F
:100340000B78491C0370401C521E830704D00B78A5
:10035000491C0370401C521E8B079B0F05D0C91A05
:10036000DF002023DE1B08C90AE0FFF7FBFEF8BD13
:100370001D4608C9FD401C46B4402C4310C0121F46
:10038000042AF5D2F308C91A521EF0D40B78491C7E
:100390000370401C521EEAD40B78491C0370401CA9
:1003A000012AE4D409780170F8BD01E004C0091FF6
:1003B0000429FBD28B0701D50280801CC90700D01D
:1003C0000270704700290BD0C30702D00270401C96
:1003D000491E022904D3830702D50280801C891E8E
:1003E000E3E70022EEE70022DFE700000022030936
:1003F0008B422CD3030A8B4211D300239C464EE040
:1004000003460B433CD4002243088B4231D30309FB
:100410008B421CD3030A8B4201D394463FE0C309AD
:100420008B4201D3CB01C01A524183098B4201D3C5
:100430008B01C01A524143098B4201D34B01C01AB0
:10044000524103098B4201D30B01C01A5241C30828
:100450008B4201D3CB00C01A524183088B4201D397
:100460008B00C01A524143088B4201D34B00C01A83
:100470005241411A00D201465241104670475DE098
:10048000CA0F00D04942031000D3404253409C465B
:10049000002203098B422DD3030A8B4212D3890118
:1004A000FC2212BA030A8B420CD3890192118B42AF
:1004B00008D3890192118B4204D389013AD0921159
:1004C00000E08909C3098B4201D3CB01C01A524114
:1004D00083098B4201D38B01C01A524143098B42DD
:1004E00001D34B01C01A524103098B4201D30B01C6
:1004F000C01A5241C3088B4201D3CB00C01A5241EB
:1005000083088B4201D38B00C01A5241D9D24308D1
:100510008B4201D34B00C01A5241411A00D201460E
:100520005241104663465B1001D34042002B00D578
:100530004942704763465B1000D3404201B505490C
:10054000002802DC491C084000E00846C046C046BE
:1005500002BD00BFFFFFFF7F7047704770477546C1
:1005600000F024F8AE46050069465346C008C000B6
:10057000854618B020B5FFF71BFE60BCB6460026C6
:100580000027C0C5C0C5C0C5C0C5C0C5C0C5C0C5A1
:10059000C0C5403D490849008D46704710B5044626
:1005A000C046C0462046FFF7D6FD10BD0048704744
:1005B0001000002001491820ABBEFEE72600020013
:1005C00070470000F0B585B00520000703900126B4
:1005D000F103214D3246A8472048402400220492CE
:1005E0002146A847710201911D483246A8477D2047
:1005F0000290C7001B4D3846A8471848214632468E
:10060000154B98473846A8473402039D2846214693
:10061000049A114B98473846124988472846214684
:1006200032460D4EB047C8200E4DA8470C480199E0
:10063000049D2A46B04738460A4988470398214610
:100640002A46B047029840010649884706A1284635
:1006500001F0E4F805B0F0BDA9080008000800505A
:1006600000040050110700085475726E206F6E2050
:10067000506F77657220646F6E652E0D0A00000062
:10068000EFF3108072B6FEE710B52521425C0146FB
:100690002431022A12D1026813680E24A343136086
:1006A00013680124A3431360026C406C1C230340B5
:1006B0002046984050604C70002002E00422C26343
:1006C000012000220A7010BDB0B52521415C02292D
:1006D00019D101462431026813680E24A343136024
:1006E00013680125AB431360026C436C1C241C404F
:1006F0002B46A340536000240C704D70816B002981
:1007000004D0884702E00421C16301242046B0BD23
:10071000B0B5044600F0D0F80546601C02D085480C
:100720000078041900F0C8F8401BA042FAD3B0BD0D
:10073000F0B589B0594A904201D0062300E0052364
:100740000B221207029080180A22D041009005283F
:1007500000D30093002005460890044603910E68DC
:100760003046E04000D196E001230593A3401E40AF
:1007700000D18AE007944A68032014460440671EAB
:10078000012F0695049216D80327AF40029DA86852
:10079000B843CA6806998A400243AA600498C00612
:1007A000C00F079988406A689A4302436A60069DB1
:1007B000FB4349000AE00146A940CB43032C2946EC
:1007C00004D129460446029F049A20E0029FF8685B
:1007D00001931840039B9A688A400243FA60022CF6
:1007E00013D11C20089A10400F228240079CE40875
:1007F000A4003C19256A95431A6982402A43069D44
:1008000022625A680324144000E0049A019B8C4041
:1008100038681840204338609003800F0399204FB8
:10082000079C32D0494802460068059B1843106077
:100830000C20089A10400F23834003229443194D43
:1008400062599A43009B83401343635138684C6854
:10085000E20301D5304300E0B043069D386078687C
:10086000A20301D5304300E0B0437860B868E202EB
:1008700001D5304300E0B043B860F868A20201D56A
:10088000304300E0B043079CF8600898001D0890D2
:10089000AD1C641C63E709B0F0BDC046001C0050ED
:1008A0000004014008000140002A01D0182200E0A5
:1008B0002822815070470000054800687047C046F4
:1008C0001C48007802490A68101808607047C04642
:1008D000A406002080B5E948016840220A4302606E
:1008E000032000F009F8002801D0012080BD00F0AD
:1008F00023F8002080BDC04670B504467D20C000AE
:100900000C4E3178FFF772FD0146EA480068FFF7A8
:100910006DFD00F049FC0125032C08D8002806D104
:100920000025E84321462A4600F01EF87460284658
:1009300070BDC04600000020044801680122114338
:100940000160110742680A43426070473410024058
:10095000002805D41F210840012181400148016081
:100960007047C04600E100E080B501F075FD80BD34
:10097000F0B587B0044601252F0200788006E74BCA
:100980007BD52907986BC0000594029101D5002002
:1009900003E0986B0843986301200390534C206850
:1009A00038420FD1206838432060FFF785FF0646A4
:1009B0002068384206D1FFF77FFF801B6428F7D9F3
:1009C000032590E0D54B1A6803200604059C616856
:1009D00006913140019000050490B14207D106987C
:1009E00042400498024002D01A6892037BD41A6DE8
:1009F000324028D08A4226D02178890623D5196D25
:100A0000EA04C64B1B6D1343C44D2B65C34B1B6DD2
:100A10009343C24A1365C14B0A46B2431A65394231
:100A200011D0FFF749FF0546954CBC4B186D80056A
:100A300006D4FFF741FF401BA042F6D9019D52E0CA
:100A4000059C60680690069D29463140B1420AD156
:100A50000498054003221205B04B1B6893432B43B7
:100A6000AE480360AD4B186D084318650398002825
:100A700003D0986B0299884398632068C10705D01A
:100A8000D96C03229143A2680A43DA64810705D531
:100A9000D96C0C229143E2680A43DA64410706D517
:100AA00003218902DA6C8A4321691143D964010761
:100AB00006D503210903DA6C8A4361691143D964BD
:100AC000384206D003210904DA6C8A43A169114334
:100AD000D9640025000606D503208004D96C814323
:100AE000E0690843D864284607B0F0BD00700040B4
:100AF000FEB5002847D00D460290604800680121ED
:100B000001910840A84215D25C48014600680126C0
:100B1000B043284308605A4CFFF7CEFE07465748BB
:100B200000683040A84205D0FFF7C6FEC01BA042B7
:100B3000F5D926E0029C206881075F4E05D5316813
:100B4000F0229143A2680A433260C0071DD14B488E
:100B5000006801273840A84221D94848014600686A
:100B6000B84328430860464CFFF7A6FE06464348B4
:100B700000683840A84212D0FFF79EFE801BA042BA
:100B8000F5D90320FEBD0120FEBD626831460C3957
:100B9000032A29D0022A2AD1096889032DE0029B61
:100BA00018684107444C06D50721090222688A4388
:100BB000D96811432160000707D50720C0022168CA
:100BC00081431869C0000843206000F079F821686B
:100BD0000906090F2B4A515CC840364908602A486B
:100BE0000068FFF789FEFEBD0968890105E0096814
:100BF000012A01D1490700E08905019800D4FEBD12
:100C0000316803200190814311433160FFF754FEA6
:100C1000074660681A4C03281DD0022826D00128F8
:100C20000AD130680C210140042990D0FFF744FE1E
:100C3000C01BA042F5D91FE030680007800F86D0A6
:100C4000FFF73AFEC01BA042F6D915E0FFF734FECD
:100C5000C01BA04210D830680C2101400C29F5D1EE
:100C600075E7FFF729FEC01BA04205D830680C21AC
:100C700001400829F5D16AE70198FEBD0020024035
:100C80008813000028250008040000200948006897
:100C9000094909684905490F084A515CC84070472D
:100CA00004480068044909688904490F034A515CF3
:100CB000C8407047080000200C100240382500088A
:100CC00010B5164AD1680807830F15487B441B7975
:100CD0005B009F440108070D0120000451680904CE
:100CE000490F884010BD1068C00610D50E4810BDD1
:100CF0008B021B0F0B4CE35C0902890F491CD46863
:100D0000E40307D41068C00603D4084802E007488B
:100D100010BD05485843FFF769FB10BD00100240A5
:100D200000127A004025000800093D000024F4006C
:100D3000F0B589B000281ED0F64EF1680C220A40AA
:100D40000692012105910904F76804910F4007906C
:100D50000078C0074AD00698082804D006980C28C6
:100D60000BD1002F09D0306880033FD50798406829
:100D700000283BD174E001200AE207984468049AF5
:100D8000944208D03068052109048C4206D10599A7
:100D90008904084330603068104309E090433060B4
:100DA000306810400890089805988104306888439E
:100DB0003060FFF781FD0546002C0BD005984404F8
:100DC0003068204212D1FFF777FD411B03206429D0
:100DD000F6D9DDE1059844043068204206D0FFF7DB
:100DE0006BFD411B03206429F6D9D1E107980078F7
:100DF00080071ED407980078C00633D4079800787F
:100E0000000700D4B7E007984169306D002900D190
:100E1000A1E0012108433065FFF74EFD0546306D26
:100E2000800700D5A7E0FFF747FD401B0228F6D951
:100E300032E0079BD868810604D53168202211432F
:100E4000316090430699042904D006990C2943D1B6
:100E5000002F41D13168002820D1042211401DD03B
:100E6000059895E1069800284CD0079882690121E1
:100E70004C0230680902002A00D1ABE00843306020
:100E8000FFF71AFD05463068204200D000E1FFF769
:100E900013FD401B0228F6D9032079E11F21090226
:100EA00072688A4319690902114371603168092225
:100EB000914301433160FFF703FFF1680906090F11
:100EC000B44A515CC840B4490860B4480068FFF7B0
:100ED00013FD00288ED05BE13168002800D1E8E0E6
:100EE0000922914301433160FFF7E6FC0546306873
:100EF000400700D503E1FFF7DFFC411B0320022977
:100F0000F5D945E130688005079B02D5986900282E
:100F1000A6D00720400371688143186A01437160BD
:100F2000FF21090672688A43D96909068918716028
:100F3000400B04998140F0680006000F954A105C50
:100F4000C1409548016095480068FFF7D5FC00282E
:100F500000D01DE152E7012188433065FFF7ACFC6A
:100F60000546306D800706D5FFF7A6FC411B032020
:100F70000229F6D90CE107990878400721D44C6A78
:100F8000002C00D103E106980C2833D1012C00D1AC
:100F900066E7F068049A0240079B996A8A4200D08B
:100FA0005EE70F2189040140DA6A914200D057E7D9
:100FB000032189050840196B8842059800D1E6E0B5
:100FC000E6E001221107B06BC000019133D500208B
:100FD000029034E088433060FFF76EFC05463068CD
:100FE000204200D10AE7FFF767FC411B03200229DA
:100FF000F5D9CDE00120010632688A433260470608
:10100000FFF75AFC0546022C0AD13068384200D15D
:10101000A0E0FFF751FC411B03200229F5D9B7E0FE
:101020003068384200D1B2E0FFF746FC411B032094
:101030000229F5D9ACE0B06B0843B0630292039289
:101040001402574F3868C0050FD438682043386001
:10105000FFF732FC05463868204206D1FFF72CFC2A
:10106000411B03206429F6D992E007988068039B0E
:101070005F0200282ED0A04207D0316D0522120257
:10108000904249D1980201433165306D204348E0D8
:101090000720400371688143079A106A0843706013
:1010A000FF20000671688143D06900064018706017
:1010B000A4E6012081433160FFF7FEFB054630685E
:1010C000400700D496E6FFF7F7FB411B03200229F7
:1010D000F5D95DE0306DA04330659802316D8143F4
:1010E0003165FFF7E9FB05462E4C306D384227D0BD
:1010F000FFF7E2FB411B0320A142F6D948E01F2085
:10110000000271688143079800690002084370601B
:1011100070E6C04600100240A14331659902306D6F
:101120008843204C3065FFF7C7FB0546306D3842D9
:1011300006D1FFF7C1FB411B0320A142F6D927E0EE
:1011400002980028079900D119E7B06B019A9043E3
:10115000B06314E7FD200004F1688143079B283346
:101160000DCB084310431843F0601948401C316808
:1011700001433160FFF7A0FB04463068384206D1D6
:10118000FFF79AFB011B03200229F6D900E000209B
:1011900009B0F0BD28250008080000200400002048
:1011A0000070004088130000401E010E01D0012095
:1011B00070470749074A5060074803680B400321FE
:1011C000890759180160002090600721116070475D
:1011D000FFFFFF0010E000E020ED00E070477047E7
:1011E00070470000F0B589B007460168CB69086810
:1011F00020260246324001240894E50207952F3547
:101200001D408C68202D08D1002A06D0796E002957
:1012100001D03846884709B0F0BD049101463D46EB
:1012200058350595079D0F3506932B420DD0254661
:101230000296089E3540684268410397A54E3142A8
:10124000029E039F54D1002852D00B4606980340BB
:10125000DA063A6E3BD5012A39D11022049802628F
:101260008068400600D5C5E0059B588819885B88D2
:10127000002BD0D0081A0104CDD0EFF310810790D5
:101280003846089F87F3108809235B0104682568A6
:101290009D43256081F31088EFF3108187F3108858
:1012A00003689C68BC439C6081F31088C66700217A
:1012B00041660166EFF3108187F3108803681C68AC
:1012C00094431C6081F31088079989B2DAE006988C
:1012D000C202049900D4D8E0089A9205144000D1C3
:1012E000D3E00898000508623846FFF778FF92E7D8
:1012F00007460698C4070846049909D0089C2402AA
:10130000044005D0089E0E62059B9C6A34439C6293
:1013100001900226069B1C460096344066426641B8
:101320003E4306D1009C0C62059CA06A042606433D
:10133000A66204241E4620462640744274413C4363
:1013400005D10862059EB46A009F3C43B462154310
:101350006A1E95411A07039E019807D5002D05D0F6
:1013600008220A62059DAC6A1443AC62079A1342D4
:10137000059D09D0089A9206024005D0079A0A6294
:10138000AA6A029C2243AA62AA6A002A00D142E702
:101390001840800605D5726E002A02D0304690476C
:1013A0003168A86A282202408868402420408018BA
:1013B00000D188E0304600F080FC3068806840064C
:1013C00000D47AE0EFF31080089981F31088316837
:1013D0008A68A2438A6080F31088306F00286CD03E
:1013E0003D498163FFF770F9002800D113E7306FA2
:1013F000816B0FE7386F01684B689CB2002C059D2C
:1014000000D108E72888844200D304E76B8009688C
:10141000890633D4EFF31080089D85F310882F4997
:1014200020313B681C680C401C6080F31088EFF38F
:10143000108085F3108839688B68AB438B6080F32C
:101440001088EFF3108085F3108839688B6840248A
:10145000A3438B6080F31088FE6700203866EFF3AB
:10146000108085F31088059D39680B6893430B60E5
:1014700080F31088386FFFF707F928886988401AC9
:1014800081B23846FFF7AAFEC5E6190619D45806F8
:1014900000D4C0E6EFF31080089981F31088396812
:1014A0000A6840239A430A6080F310880020B866D7
:1014B000BE67384600F0CAF8ADE63046FFF790FE4A
:1014C000A9E6B96EA3E63046FFF78AFE0020A862BF
:1014D000A1E6C04620010004A51C0008DFFEFFFFB6
:1014E000B0B500282ED00446806F002805D17420A6
:1014F00000212154204600F029F82420A06720680C
:1015000001680125A9430160204600F0B5FC0128CF
:1015100019D0606A002802D0204600F032FB092072
:10152000C00221684A6882434A6088682A22904340
:1015300088600868012202430A60204600F07EFBB2
:10154000054600E001252846B0BD000070B586B014
:10155000044601A81421FEF746FF20687949884215
:1015600024D10124A00365498A6802438A6008687F
:101570002043086008682040009004200590002562
:1015800003950220029003200490400201900098ED
:101590000520000701A9FFF7CBF81B26304621469E
:1015A0002A46FFF7E1F93046FFF7D2F906B070BDE1
:1015B000F8B5C36F0225202B2DD1012400292BD093
:1015C000002A29D001231C038668A64204D104699D
:1015D000002C01D1CC0721D17424045D012C2C46B0
:1015E0001AD00446743423700024046605680C4E37
:1015F000B5420DD06D682D020AD5EFF3108583F347
:1016000010889B06066837681F43376085F310888B
:1016100000F02CFD00E02C462046F8BD1C46FBE700
:1016200000480040B0B501229002064B1C5A064902
:101630000D781D551C5A641C1C524148FFF7B8FF19
:10164000B0BDC046A0020020700000207047FEE739
:10165000F0B589B00024089428480168802211431D
:10166000016001681140039103990168042211434C
:101670000160016811400391039901680125294324
:101680000160016829400391039901680222114316
:101690000160006810400390039819484027194BD7
:1016A00039462246984705200007029081210E0204
:1016B00031462246134B984769020191124822464F
:1016C000104B9847079406940595049704AF0C486F
:1016D00039460E4A90470794069405950496029859
:1016E00039460A4EB0470794069405950198049030
:1016F00005483946B04709B0F0BDC0462C1002403D
:1017000000080050A9080008000400503107000834
:1017100010B50B4800210C220A4B01624162E12402
:10172000640218C0016041608160C2600161416172
:101730000838FFF7D5FE002801D0FEF7A1FF10BD45
:101740001C02002000380140FEE77047B0B5044697
:10175000314D2878002801D100F052FD0020002CE6
:1017600001D0C043B0BD049AEFF31083012181F38F
:101770001088EA6283F31088B0BDC04680B500F0DF
:101780003FFD80BDF8B514460D4606462248007858
:10179000002801D100F034FDEFF31087012181F31F
:1017A000108830462946224600F004F887F3108856
:1017B000F8BDC046F8B514460D46182141431648F9
:1017C0004618F06A1836022810D0012815D00027D4
:1017D00000281ED1304600F045FDA04219D3304606
:1017E0002946224600F01CFE274612E030462946D4
:1017F000224600F0E7FD07460BE0304600F032FDE0
:101800000746A04200D32746304629463A4600F014
:1018100007FE3846F8BDC046D4000020B0B50C46DF
:1018200005460846FEF75EFD024628462146FFF7BC
:10183000A9FFB0BD82B0E0B50492059304AA01925D
:1018400001AA00F005F88CBC02BC02B008470000F9
:10185000F0B5AFB007920D4603902E9000222C9267
:1018600080202B900AA82A902D9229786E1C252979
:1018700007D0002900D11EE12AA800F083FD3546DB
:10188000FEE0A81C00233178232907D02B2907D09C
:101890002D2907D030290AD1022104E0082102E0D5
:1018A000042100E001210B43401C761CEBE7089269
:1018B00000240A46303A092A07D80A2262435418FB
:1018C000303C401C7178761CF3E72E2909930BD12C
:1018D000002701780A46303A092A07D80A227A43B3
:1018E0005718303F401CF4E7002700E00646751CFF
:1018F0000846633809280CD87844007940008744AA
:101900004E55BFBFBF04BFBFBF04681C2978054642
:10191000EEE708467038082815D8C04678440079A4
:101920004000874404ADAD20AD31ADAD1500079A40
:101930001068011D116001680020082300930190C8
:101940002AA810229AE025294ED0582900D097E0E5
:10195000079A1068011D11600168009409980190B0
:101960002AA8102289E0079A1068011D11600468F6
:101970002178002900D183E02AA800F003FD641C2F
:101980002D980028F4D57BE0079A1068011D11609E
:1019900001680094099801902AA80A226DE0079A2C
:1019A0001068011D116001782AA81FE0079A1068CD
:1019B000011D11600268D11750184840059251422C
:1019C000049101260A2804D30A21FEF70FFD761C94
:1019D000F8E7BE42069700D30696002C09D005987A
:1019E000002809D4002008E02AA8252100F0CAFC1C
:1019F00046E00024099A06E001200421099A1140DA
:101A000089080143641A0226164003D0002F01D131
:101A1000089814E00998C007089810D1002C0ED03F
:101A2000002C0BD00699A14209D22AA8202100F04F
:101A3000A9FC641E2D980028F2D521E0002400287E
:101A40001ED40598002805D40998400704D40598A9
:101A5000049007E02D2102E02B21059804902AA88C
:101A600000F090FC2D9800280AD4002E0CD1009490
:101A7000099801902AA80A2204993B4600F0FEFB2F
:101A80002D9A002A27D4F0E601200999084038430E
:101A9000EDD1002CEBD0002C0BD00698A042E6D262
:101AA0002AA8302100F06EFC641E2D980028F2D583
:101AB000E6E70024DBE7012A0CDB2C9D002D06D095
:101AC0000AA9039814462A46FFF75CFE2246AA1884
:101AD0002D9200E0002210462FB0F0BD704780B577
:101AE000FEF7EEFE80BD0000F0B59BB00EAC201DF1
:101AF00020252946FEF777FC09A81421FEF773FC80
:101B000001A82946FEF76FFC0327F8021B490A6863
:101B100082430126F00210180860F0051A90002593
:101B200019951895022017901021129111960E9078
:101B30002046FFF7FDF8002803D0EFF3108072B6BF
:101B4000FEE70D950C950B950A970F20099009A8B3
:101B50002946FEF7CDFF002803D0EFF3108072B6C0
:101B6000FEE70395019601A8FEF702FF002803D0C7
:101B7000EFF3108072B6FEE71BB0F0BD00700040BE
:101B80007047B0B5416ACA0707D001225204036802
:101B90005C689443826A22435A608A0707D501220F
:101BA000120403685C689443C26A22435A604A077D
:101BB00007D50122920403685C689443026B2243B8
:101BC0005A600A0707D50122D20303685C68944370
:101BD000426B22435A60CA0607D5012212030368EA
:101BE0009C689443826B22439A608A0607D501223F
:101BF000520303689C689443C26B22439A604A066E
:101C000010D501221305026854689C43056C2C43CF
:101C100054609D4206D103235B0554689C43436C8A
:101C200023435360090607D50121C904026853689C
:101C30008B43806C18435060B0BD00007CB50546F6
:101C4000802000242C50FEF737FE064628680168E5
:101C500009070BD5124800900120410500222846B3
:101C6000334600F057FA00280ED128680068400774
:101C70000CD50B48009001208105002228463346F0
:101C800000F048FA002801D0032406E0284674300A
:101C90002021A967E9672C66047020467CBDC046F8
:101CA000FFFFFF0180B5806A0146523100220A81A0
:101CB00052214252FFF794FA80BDB0B5EFF3108283
:101CC000012181F3108809235B01046825689D4385
:101CD000256082F31088EFF3108281F31088036887
:101CE0009C688C439C6082F31088026E012A0AD1A2
:101CF000EFF3108281F3108801680B681024A3436E
:101D00000B6082F310882021C167002141660166C3
:101D1000B0BD70B55C21435A0268C16F22290ED153
:101D200001465831526A1340426D1380921C42653D
:101D30004A88521E4A804A88002A05D070BD9069A0
:101D400008210143916170BDEFF31083012282F3FA
:101D500010880924640105682E68A6432E6083F369
:101D60001088EFF3108382F310880468A568954308
:101D7000A56083F310882023C36700234366046EA5
:101D8000012C14D10366EFF3108382F310880468EA
:101D9000256810229543256083F310880368DC6969
:101DA000E40600D51A620988FFF718FA70BDFFF73C
:101DB00039FC70BD70B55C21435A0268C16F22299D
:101DC0000FD101465831526A1A40436D1A70426D64
:101DD000521C42654A88521E4A804A88002A05D011
:101DE00070BD906908210143916170BDEFF31083CC
:101DF000012282F310880924640105682E68A64335
:101E00002E6083F31088EFF3108382F31088046848
:101E1000A5689543A56083F310882023C36700233A
:101E20004366046E012C14D10366EFF3108382F332
:101E300010880468256810229543256083F3108874
:101E40000368DC69E40600D51A620988FFF7C6F961
:101E500070BDFFF7E7FB70BD10B50023934207D0BC
:101E6000C4692406FCD50C7884625B1C491CF5E728
:101E7000C1694906FCD510BDF8B50446C169406981
:101E80002369A56822681668674F37401D430543DC
:101E90000D433D4315600326300353688343E068D8
:101EA00018435060A569614B9A4202D0206A2843CA
:101EB00000E028460B252D029768AF430743976043
:101EC0005B48824212D09A4213D00027594882427E
:101ED00018D05948824215D05848824211D15848EA
:101EE000C06C8007000F58A52F580BE05448C06CF9
:101EF00002E05348C06C000A0C2505405148475980
:101F000000E010270125E8039A4211D081421DD13B
:101F1000082F00D965E0C0467F443F797F00BF4469
:101F2000042E34603A6060603E00FEF7AFFE34E09D
:101F3000082F56D87F443F797F00BF440452155282
:101F40001B5252525800FEF7A1FE15E0082F48D848
:101F50007F443F797F00BF4404152F4435444444F7
:101F60003900FEF793FE2FE035480068C0063DD5E6
:101F70003A483CE0FEF7A4FE002838D130E0FEF7F6
:101F80008FFE0AE0FEF78CFE1EE02D480068C006BA
:101F900046D5324803E0FEF793FE002820D04000EB
:101FA00061684A081018FEF721FA2D49014018D03F
:101FB0000007400F084311E021480068C00631D5F2
:101FC000264803E0FEF77CFE002809D061684A0835
:101FD0001018FEF70BFA80B2102802D32168C860EF
:101FE000002500206066A0662846F8BD1A48626891
:101FF0005643B042F5D311038842F2D8010E53087C
:1020000000020026C01871413346FEF7E3F8154977
:102010004118154A9142E4D82168C8603546E0E786
:102020000D48BCE70C48D1E7F369FFEF00480040DA
:1020300000440040004C0040005000400038014087
:10204000001002404C2500080100000004000000C0
:1020500002000000080000000024F40000093D0018
:10206000F0FF000000FDFFFFFFFC0F0070B503460E
:1020700058201A52596500205866194658314A802E
:102080009A68002A0BD001242507AA420CD0240309
:10209000A2420ED11A69002A04D11B4A0CE01A6927
:1020A000002A08D1FF2207E01A69002A03D03F2244
:1020B00002E0888001E07F228A8088622222DA673B
:1020C000EFF31084012282F310881D68AE68164376
:1020D000AE6084F3108814039D68A54202D11C6988
:1020E000002C0FD00A4C5C660877EFF3108182F366
:1020F0001088092252011B681C6814431C6081F37C
:10210000108870BD014CEEE7FF010000131D0008B0
:10211000B51D0008FEB516460F4604680146743129
:102120000191089DE1693940C91B4A424A41B242C6
:1021300033D1691CF6D004460293FEF7BDFB029B27
:10214000002D2CD0C01AA84229D820462468216826
:102150004907E7D5E1690905E4D50121CA022262F0
:10216000EFF3108481F310880D22520103681D687B
:1021700095431D6084F31088EFF3108481F3108879
:10218000026893688B43936084F3108820218167F1
:10219000C16701990C460C341CE00020FEBDEFF332
:1021A0001081012080F310880D22520123681D68E0
:1021B00095431D6081F31088EFF3108180F3108840
:1021C000226893688343936081F310882020A0677E
:1021D0007C34019920202060002008700320FEBD7F
:1021E00080B5CD48C169890604D50068800601D54F
:1021F00000F004F8C448FEF7F5FF80BD704700000A
:1022000010B5124C0120206160611149A161114A91
:10221000E261000220620020A0626062E06221634D
:102220000D49491C61634021A1632064E063A072F1
:102230005421617221725221E171606407A1072269
:102240002046FEF771F82020A07110BDD4000020B8
:102250005C2500081C0100209100002053454747E1
:1022600045520000C2680169914201D9D04302E0A1
:10227000D24389188068081870470000F0B587B00D
:102280001C461546069001260D9804900C9F02915D
:102290000846A84204D32946FEF7A8F8761CF8E7BA
:1022A0003A460127A642059400D3059604990846AC
:1022B0003840002A0190009406D0002804D1202044
:1022C000890703D4049003E0164611E030210491FD
:1022D000002C00D004901646069C0598B04207D208
:1022E0002046049900F04EF8761EE0680028F4D5E8
:1022F00003960698C06800283AD4029E009C022CDF
:1023000001D3641E05E030463946FEF76FF8A84257
:1023100001D36F43F3E70495069D30463946FEF737
:1023200065F8044613A0015D284600F02BF8E86824
:10233000002809D47C43361B3846049C2146FEF70E
:1023400055F8A7420746E8D20198002810D0039814
:1023500000280DD00398441C069D641E0598A042D9
:1023600006D22021284600F00DF8E8680028F4D5B0
:1023700007B0F0BD30313233343536373839414269
:102380004344454610B5044642688368581C904251
:1023900001D9184606E02268D154A060E168491CC2
:1023A000E1606268904208D121682069FFF7EAF98C
:1023B000A168884202D10020A06010BD0020C04367
:1023C000E06010BDFEB516460D46C76800210190BD
:1023D0000269BA42029103D9F9435418826803E0B2
:1023E000F943511882688C184168D21B944200D37B
:1023F0001446C819B44200D3344629462246FDF794
:1024000093FFE719019881688F4200D10027029954
:10241000C760361B2D196118002ED9D10846FEBDA4
:10242000F8B5154604464068A268E6688019971B0F
:10243000AF4204D92A46FDF777FF751909E00E4629
:102440003A46FDF771FFF119ED1B60682A46FDF76A
:102450006BFFE560F8BD0000002805D403220346A9
:1024600093430C4A9A1806E00F220240083A0323CD
:102470009A43074BD2188007C00E8901C9B2814028
:10248000FF23834010689843084310607047C0469C
:102490001CED00E000E400E084B0FEF71BFAFFF75B
:1024A00023FBFFF76BF901240094154D6A1C15A15D
:1024B00020232046FFF74AF9FFF7CAF8FFF728F96B
:1024C000FEF780F8104829462246FFF771F80FA062
:1024D00001A90A4628C828C2007810700E480922AF
:1024E000FFF7BAFC0D4E0EA57D200001FEF710F996
:1024F000A002325A00202946FFF79CF9F4E7C046B3
:10250000700000204C6F67001C02002041542B47D4
:102510004D490D0A0000000000380140A0020020D3
:1025200025642C0D0A0000000000000000000000DF
:102530000102030406070809000000000102030469
:10254000030406080C1018203000000000000000F2
:102550000400000002000000080000005465726DD5
:10256000696E616C000000008825000800000020F2
:102570001000000004010008982500081000002049
:10258000980C000020010008010000000400000079
:08259000000020000000000023
:04000005080000C12E
:00000001FF
